:020000040000FA
:1000000001288316003087008800FF3086008312A5
:10001000003087008800003076210B280030A100D6
:10002000A200A10B1128A20B112808002008003AF9
:10003000031D1F283F3087004430880075292008A1
:10004000013A031D282818308700043088007529DC
:100050002008023A031D3128363087008830880096
:1000600075292008033A031D3A28FC308700083020
:10007000880075292008043A031D43281930870099
:100080008830880075292008053A031D4C28ED307A
:1000900087008830880075292008063A031D5528F6
:1000A000EF3087008830880075292008073A031D43
:1000B0005E28383087000030880075292008083A0B
:1000C000031D6728FF3087008830880075292008C5
:1000D000093A031D7028FD30870088308800752993
:1000E00020080A3A031D7928FB30870088308800F1
:1000F000752920080B3A031D82283C3087002A30DE
:100100008800752920080C3A031D8B28E7308700EA
:1001100000308800752920080D3A031D94283C30D2
:10012000870022308800752920080E3A031D9D287B
:10013000E730870080308800752920080F3A031DBA
:10014000A628E33087008030880075292008103AFF
:10015000031DAF28EF30870008308800752920087C
:10016000113A031DB828DB308700883088007529D4
:100170002008123A031DC128E4308700223088008D
:1001800075292008133A031DCA28DE308700003085
:10019000880075292008143A031DD32803308700EE
:1001A0009430880075292008153A031DDC28C730D3
:1001B00087000030880075292008163A031DE528BD
:1001C000DB3087000530880075292008173A031DA9
:1001D000EE28DB3087001130880075292008183A96
:1001E000031DF728FF30870000308800752920089C
:1001F000193A031D0029F3308700883088007529DB
:1002000020081A3A031D0929FF30870010308800A2
:10021000752920081B3A031D1229F33087009830F6
:100220008800752920081C3A031D1B29ED30870022
:1002300088308800752920081D3A031D2429E030E4
:10024000870022308800752920081E3A031D2D29B9
:10025000DF30870000308800752920081F3A031D11
:100260003629C33087004430880075292008203A99
:10027000031D48291B30870050308800752920084D
:10028000213A031D48290030870055308800752920
:100290002008223A031D51290030870025308800AC
:1002A00075292008233A031D5A29E4308700443079
:1002B000880075292008243A031D6329003087002F
:1002C000A230880075292008253A031D6C290030CA
:1002D00087002A30880075292008263A031D7529D1
:1002E000043087000030880075290800A4000F3012
:1002F0008A0024080027A50001308A002508A000F4
:0E03000016200E20250803190800A40A7729EC
:101E000082070A340E341B34183424341934123443
:101E10000C34263412341C3426341C341234163458
:101E2000193415340E3426341A3404340A34083480
:0C1E300014340134153407342534003418
:00000001FF
