:100000007F454C4601010100000000000000000097
:100010000300030001000000501000003400000045
:100020005838000000000000340020000B002800B9
:100030001E001D0006000000340000003400000017
:1000400034000000600100006001000004000000B6
:10005000040000000300000094010000940100006F
:1000600094010000130000001300000004000000D1
:10007000010000000100000000000000000000007E
:100080000000000098030000980300000400000036
:10009000001000000100000000100000001000002F
:1000A000001000002C0200002C02000005000000DF
:1000B00000100000010000000020000000200000EF
:1000C000002000007C0100007C0100000400000012
:1000D0000010000001000000F42E0000F43E0000BB
:1000E000F43E0000940100009801000006000000AA
:1000F0000010000002000000FC2E0000FC3E00008A
:10010000FC3E0000F0000000F000000006000000CF
:100110000400000004000000A8010000A801000085
:10012000A80100004400000044000000040000009A
:100130000400000050E5746408200000082000005E
:10014000082000004C0000004C00000004000000EB
:100150000400000051E5746400000000000000008D
:100160000000000000000000000000000600000089
:100170001000000052E57464F42E0000F43E00000C
:10018000F43E00000C0100000C010000040000001F
:10019000010000002F6C69622F6C642D6C696E7514
:1001A000782E736F2E32000004000000140000004F
:1001B00003000000474E5500310B2AB73CF48C1E5B
:1001C00086889DADB8FD0716A97BE5F10400000007
:1001D0001000000001000000474E55000000000024
:1001E0000300000002000000000000000200000008
:1001F00006000000010000000500000000200020B3
:100200000000000006000000AD4BE3C0000000004D
:10021000000000000000000000000000510000008D
:100220000000000000000000200000001A00000094
:100230000000000000000000220000006D0000002F
:100240000000000000000000200000002900000065
:100250000000000000000000120000007C00000010
:100260000000000000000000200000000B00000063
:10027000042000000400000011001000006C6962FE
:10028000632E736F2E36005F494F5F737464696E1F
:100290005F75736564005F5F6378615F66696E6157
:1002A0006C697A65005F5F6C6962635F7374617229
:1002B000745F6D61696E00474C4942435F322E3076
:1002C00000474C4942435F322E312E33005F495480
:1002D0004D5F64657265676973746572544D436CF4
:1002E0006F6E655461626C65005F5F676D6F6E5F16
:1002F00073746172745F5F005F49544D5F7265672C
:100300006973746572544D436C6F6E655461626CB1
:100310006500000000000200000003000000010072
:1003200001000200010000001000000000000000B9
:100330001069690D000003003B0000001000000080
:10034000731F690900000200450000000000000062
:10035000F43E000008000000F83E00000800000025
:10036000F83F0000080000002440000008000000E2
:10037000EC3F000006010000F03F00000602000014
:10038000F43F000006030000FC3F000006050000EB
:100390000C40000007040000000000000000000006
:1003A000000000000000000000000000000000004D
:1003B000000000000000000000000000000000003D
:1003C000000000000000000000000000000000002D
:1003D000000000000000000000000000000000001D
:101000005383EC08E88700000081C3F72F00008BB2
:1010100083F4FFFFFF85C07402FFD083C4085BC365
:10102000FFB304000000FFA3080000000000000060
:10103000FFA30C0000006800000000E9E0FFFFFFD4
:10104000FFA3F0FFFFFF669000000000000000001B
:1010500031ED5E89E183E4F0505452E82200000053
:1010600081C3A02F00008D8310D2FFFF508D83B06D
:10107000D1FFFF505156FFB3F8FFFFFFE8AFFFFF6E
:10108000FFF48B1C24C36690669066906690669011
:101090008B1C24C3669066906690669066906690FE
:1010A000E8E000000081C25B2F00008D8A8800000C
:1010B000008D828800000039C8741D8B82ECFFFF10
:1010C000FF85C074135589E583EC1451FFD083C4A8
:1010D00010C9C38D74260090C38DB4260000000093
:1010E000E8A000000081C21B2F00005589E5538D48
:1010F0008A880000008D828800000083EC0429C8E3
:1011000089C3C1E81FC1FB0201D8D1F874148B92C6
:10111000FCFFFFFF85D2740A83EC085051FFD28395
:10112000C4108B5DFCC9C38DB4260000000066901E
:101130005589E553E857FFFFFF81C3C72E000083A1
:10114000EC0480BB880000000075278B83F0FFFF54
:10115000FF85C0741183EC0CFFB324000000E8DDB0
:10116000FEFFFF83C410E835FFFFFFC68388000041
:1011700000018B5DFCC9C38DB426000000006690A1
:10118000E95BFFFFFF8B1424C35589E5E80C0000E1
:1011900000056F2E0000B8000000005DC38B042422
:1011A000C366906690669066906690669066909032
:1011B00055E85B00000081C54A2E00005756538356
:1011C000EC0C89EB8B7C2428E833FEFFFF8D9DF827
:1011D000FEFFFF8D85F4FEFFFF29C3C1FB027425CE
:1011E00031F68DB60000000083EC0457FF74242C08
:1011F000FF74242CFF94B5F4FEFFFF83C60183C463
:101200001039F375E383C40C5B5E5F5DC38D7600BC
:10121000C38B2C24C30000005383EC08E86FFEFF4F
:10122000FF81C3DF2D000083C4085BC30000000002
:1012300000000000000000000000000000000000AE
:10124000000000000000000000000000000000009E
:10125000000000000000000000000000000000008E
:10126000000000000000000000000000000000007E
:102000000300000001000200011B033B4800000028
:102010000800000018F0FFFF9000000038F0FFFFFC
:10202000B400000048F0FFFF6400000081F1FFFFF2
:10203000C800000095F1FFFFE8000000A8F1FFFFD5
:10204000FC00000008F2FFFF4801000009F2FFFF5A
:102050005C0100001400000000000000017A520042
:10206000017C08011B0C0404880107081000000013
:102070001C000000DCEFFFFF360000000000000045
:102080001400000000000000017A5200017C0801E9
:102090001B0C040488010000200000001C0000004C
:1020A00080EFFFFF20000000000E08460E0C4A0FD4
:1020B0000B740478003F1A3B2A32242210000000DF
:1020C000400000007CEFFFFF08000000000000005F
:1020D0001C00000054000000B1F0FFFF14000000DD
:1020E00000410E088502420D0550C50C0404000095
:1020F0001000000074000000A5F0FFFF04000000C5
:10210000000000004800000088000000A4F0FFFF6D
:102110005D00000000410E0885024C0E0C87034153
:102120000E108604410E148305430E20690E2441CF
:102130000E28440E2C440E304D0E20470E1441C381
:102140000E1041C60E0C41C70E0841C50E0400001A
:1021500010000000D4000000B8F0FFFF01000000F4
:102160000000000010000000E8000000A5F0FFFFE4
:10217000040000000000000000000000000000005B
:10218000000000000000000000000000000000004F
:10219000000000000000000000000000000000003F
:1021A000000000000000000000000000000000002F
:1021B000000000000000000000000000000000001F
:102EF00000000000801100003011000001000000FF
:102F0000010000000C000000001000000D00000097
:102F10001812000019000000F43E00001B00000021
:102F2000040000001A000000F83E00001C00000031
:102F300004000000F5FEFF6FEC010000050000003A
:102F40007C020000060000000C0200000A000000E5
:102F5000960000000B0000001000000015000000AB
:102F6000000000000300000000400000020000001C
:102F7000080000001400000011000000170000000D
:102F80009003000011000000500300001200000038
:102F9000400000001300000008000000FBFFFF6F6E
:102FA00000000008FEFFFF6F20030000FFFFFF6F1F
:102FB00001000000F0FFFF6F12030000FAFFFF6F37
:102FC00004000000000000000000000000000000FD
:102FD00000000000000000000000000000000000F1
:102FE00000000000000000000000000000000000E1
:102FF0000000000000000000891100000000000037
:10300000FC3E000000000000000000003610000040
:1030100000000000000000000000000000000000B0
:10302000000000002440000000000000000000003C
:103030000000000000000000000000000000000090
:103040004165726F7B3333643862323138613939AC
:10305000363136353762373463353033366665346A
:103060003435323761303263653033633464613311
:1030700034663861316364613566323138386332C1
:1030800033613162357D00004743433A202844656F
:103090006269616E20392E322E312D32312920396C
:1030A0002E322E31203230313931313330000000B0
:1030B0000000000000000000000000000000000010
:1030C0000000000094010000000000000300010067
:1030D00000000000A8010000000000000300020042
:1030E00000000000CC01000000000000030003000D
:1030F00000000000EC0100000000000003000400DC
:10310000000000000C0200000000000003000500A9
:10311000000000007C020000000000000300060028
:103120000000000012030000000000000300070080
:103130000000000020030000000000000300080061
:103140000000000050030000000000000300090020
:1031500000000000900300000000000003000A00CF
:1031600000000000001000000000000003000B0041
:1031700000000000201000000000000003000C0010
:1031800000000000401000000000000003000D00DF
:1031900000000000501000000000000003000E00BE
:1031A00000000000181200000000000003000F00E3
:1031B00000000000002000000000000003001000DC
:1031C00000000000082000000000000003001100C3
:1031D0000000000054200000000000000300120066
:1031E00000000000F43E0000000000000300130097
:1031F00000000000F83E0000000000000300140082
:1032000000000000FC3E000000000000030015006C
:1032100000000000EC3F000000000000030016006A
:103220000000000000400000000000000300170044
:103230000000000020400000000000000300180013
:10324000000000008840000000000000030019009A
:1032500000000000000000000000000003001A0051
:103260000100000000000000000000000400F1FF69
:103270000C000000A01000000000000002000E0082
:103280000E000000E01000000000000002000E0030
:1032900021000000301100000000000002000E00BC
:1032A0003700000088400000010000000100190004
:1032B00046000000F83E000000000000010014007D
:1032C0006D000000801100000000000002000E00F0
:1032D00079000000F43E000000000000010013002F
:1032E0009800000000000000000000000400F1FF52
:1032F0000100000000000000000000000400F1FFD9
:103300009F00000078210000000000000100120072
:103310000000000000000000000000000400F1FFB9
:10332000AD000000F83E00000000000000001300A7
:10333000BE000000FC3E000000000000010015007F
:10334000C7000000F43E0000000000000000130071
:10335000DA0000000820000000000000000011005A
:10336000ED00000000400000000000000100170018
:10337000F3010000001000000000000002000B003C
:1033800003010000101200000100000012000E00F6
:1033900013010000000000000000000020000000F9
:1033A0002F010000901000000400000012020E0027
:1033B00096010000204000000000000020001800DE
:1033C00045010000111200000000000012020E0072
:1033D0005B010000884000000000000010001800A1
:1033E0000D010000181200000000000012020F0082
:1033F00062010000851100000000000012020E00B2
:103400007801000000000000000000002200000021
:10341000940100002040000000000000100018008F
:10342000A1010000000000000000000020000000DA
:10343000B00100002440000000000000110218004C
:10344000BD01000004200000040000001100100075
:10345000CC0100000000000000000000120000008D
:10346000E9010000B01100005D00000012000E0034
:10347000B90000008C40000000000000100019009E
:103480009A010000501000003600000012000E00EB
:10349000F9010000002000000400000011001000ED
:1034A0000002000088400000000000001000190029
:1034B0000C020000891100001400000012000E0030
:1034C000110200009D1100000000000012020E0019
:1034D00027020000884000000000000011021800D0
:1034E0003302000000000000000000002000000087
:1034F0004D0200004040000048000000110018008C
:103500000063727473747566662E63006465726519
:103510006769737465725F746D5F636C6F6E6573FA
:10352000005F5F646F5F676C6F62616C5F64746F94
:1035300072735F61757800636F6D706C657465643C
:103540002E37303038005F5F646F5F676C6F626189
:103550006C5F64746F72735F6175785F66696E69C2
:103560005F61727261795F656E7472790066726113
:103570006D655F64756D6D79005F5F6672616D6525
:103580005F64756D6D795F696E69745F6172726198
:10359000795F656E7472790070726F672E63005F79
:1035A0005F4652414D455F454E445F5F005F5F6936
:1035B0006E69745F61727261795F656E64005F4409
:1035C000594E414D4943005F5F696E69745F617296
:1035D0007261795F7374617274005F5F474E555F0B
:1035E00045485F4652414D455F484452005F474C55
:1035F0004F42414C5F4F46465345545F5441424C05
:10360000455F005F5F6C6962635F6373755F6669E6
:103610006E69005F49544D5F6465726567697374D4
:103620006572544D436C6F6E655461626C65005FEA
:103630005F7838362E6765745F70635F7468756E87
:103640006B2E6278005F5F7838362E6765745F7026
:10365000635F7468756E6B2E6270005F6564617481
:1036600061005F5F7838362E6765745F70635F74E2
:1036700068756E6B2E6478005F5F6378615F666962
:103680006E616C697A654040474C4942435F322E17
:10369000312E33005F5F646174615F7374617274B3
:1036A000005F5F676D6F6E5F73746172745F5F0060
:1036B0005F5F64736F5F68616E646C65005F494F44
:1036C0005F737464696E5F75736564005F5F6C69D6
:1036D00062635F73746172745F6D61696E404047CD
:1036E0004C4942435F322E30005F5F6C6962635F1A
:1036F0006373755F696E6974005F66705F687700F9
:103700005F5F6273735F7374617274006D61696E81
:10371000005F5F7838362E6765745F70635F74682A
:10372000756E6B2E6178005F5F544D435F454E446C
:103730005F5F005F49544D5F7265676973746572BE
:10374000544D436C6F6E655461626C6500666C61CC
:103750006700002E73796D746162002E7374727449
:103760006162002E7368737472746162002E696EF8
:1037700074657270002E6E6F74652E676E752E62A2
:1037800075696C642D6964002E6E6F74652E4142FC
:10379000492D746167002E676E752E68617368002D
:1037A0002E64796E73796D002E64796E7374720075
:1037B0002E676E752E76657273696F6E002E676E5A
:1037C000752E76657273696F6E5F72002E72656C0E
:1037D0002E64796E002E72656C2E706C74002E69EA
:1037E0006E6974002E706C742E676F74002E746591
:1037F0007874002E66696E69002E726F6461746160
:10380000002E65685F6672616D655F686472002E88
:1038100065685F6672616D65002E696E69745F61CF
:1038200072726179002E66696E695F617272617988
:10383000002E64796E616D6963002E676F742E705F
:103840006C74002E64617461002E627373002E63C9
:103850006F6D6D656E7400000000000000000000D8
:103860000000000000000000000000000000000058
:103870000000000000000000000000000000000048
:103880001B00000001000000020000009401000085
:103890009401000013000000000000000000000080
:1038A00001000000000000002300000007000000ED
:1038B00002000000A8010000A80100002400000090
:1038C00000000000000000000400000000000000F4
:1038D000360000000700000002000000CC010000DC
:1038E000CC010000200000000000000000000000EB
:1038F000040000000000000044000000F6FFFF6F1D
:1039000002000000EC010000EC01000020000000BB
:10391000050000000000000004000000040000009A
:103920004E0000000B000000020000000C0200002E
:103930000C02000070000000060000000100000002
:10394000040000001000000056000000030000000A
:10395000020000007C0200007C02000096000000D3
:103960000000000000000000010000000000000056
:103970005E000000FFFFFF6F020000001203000066
:10398000120300000E00000005000000000000000F
:1039900002000000020000006B000000FEFFFF6F4D
:1039A000020000002003000020030000300000009F
:1039B00006000000010000000400000000000000FC
:1039C0007A0000000900000002000000500300001F
:1039D000500300004000000005000000000000004F
:1039E000040000000800000083000000090000003F
:1039F0004200000090030000900300000800000057
:103A0000050000001700000004000000080000008E
:103A10008C00000001000000060000000010000003
:103A20000010000020000000000000000000000066
:103A300004000000000000008700000001000000FA
:103A400006000000201000002010000020000000F0
:103A50000000000000000000100000000400000052
:103A6000920000000100000006000000401000006D
:103A700040100000080000000000000000000000EE
:103A800008000000080000009B000000010000008A
:103A9000060000005010000050100000C50100009A
:103AA0000000000000000000100000000000000006
:103AB000A100000001000000060000001812000034
:103AC00018120000140000000000000000000000B8
:103AD0000400000000000000A7000000010000003A
:103AE000020000000020000000200000080000008C
:103AF00000000000000000000400000000000000C2
:103B0000AF000000010000000200000008200000DB
:103B1000082000004C000000000000000000000031
:103B20000400000000000000BD00000001000000D3
:103B30000200000054200000542000002801000072
:103B40000000000000000000040000000000000071
:103B5000C70000000E00000003000000F43E00005B
:103B6000F42E00000400000000000000000000002F
:103B70000400000004000000D30000000F0000005B
:103B800003000000F83E0000F82E000004000000D2
:103B9000000000000000000004000000040000001D
:103BA000DF0000000600000003000000FC3E0000F3
:103BB000FC2E0000F00000000600000000000000E5
:103BC0000400000008000000960000000100000052
:103BD00003000000EC3F0000EC2F00001400000088
:103BE00000000000000000000400000004000000CD
:103BF000E800000001000000030000000040000099
:103C00000030000010000000000000000000000074
:103C10000400000004000000F100000001000000AA
:103C20000300000020400000203000006800000079
:103C30000000000000000000200000000000000064
:103C4000F7000000080000000300000088400000AA
:103C500088300000040000000000000000000000A8
:103C60000100000000000000FC0000000100000056
:103C70003000000000000000883000002600000036
:103C80000000000000000000010000000100000032
:103C90000100000002000000000000000000000021
:103CA000B0300000500400001C0000002D00000097
:103CB00004000000100000000900000003000000E4
:103CC000000000000000000000350000520200006B
:103CD00000000000000000000100000000000000E3
:103CE00011000000030000000000000000000000C0
:103CF0005237000005010000000000000000000035
:083D00000100000000000000BA
:00000001FF
